:040000000C94340028
:100004000C9400000C9400000C9400000C9400006C
:100014000C9400000C9400000C9400000C9400005C
:100024000C9400000C9400000C9400000C9400004C
:100034000C9400000C9400000C9400000C9400003C
:100044000C9400000C9400000C9400000C9400002C
:100054000C9400000C9400000C9400000C9400001C
:100064000C940000F894EE27EFBBF1E0F5BFE5BF78
:100074008DE0A2E0BB27ED938A95E9F780E098E054
:10008400A0E0B1E0ED930197E9F7E0E0EEBBEFEF1C
:10009400EDBFE8E0EEBFC0E0D3E00C945100289738
:1000A400ECE3E883E0E0E983EA83EB83EC83ED832C
:1000B400EE83EF8300E010E0E0E8E0936100E0E02D
:1000C400E0936100EFEDE4B9E0E0E5B9ECE0E7B915
:1000D400E0E0E8B9EFEBEAB9E0E0EBB9E4BDE5BD97
:1000E400E6BDE7BDE8BDE0938000E0938100E093C6
:1000F4008500E0938400E0938700E0938600E0931A
:100104008900E0938800E0938B00E0938A00E093F9
:10011400B600E093B000E093B100E093B200E09346
:10012400B300E093B400E0936E00E0936F00E093BB
:100134007000E0936900EDBBE0936800E093C100B8
:10014400E0E8E0BFE0E0E0937B00E0937F00E09331
:100154007A00ECBDE093BC0000E010E00830E0E081
:100164001E0774F4D8010ED0DE01A00FB11FAC91AC
:1001740042D0A2E0B0E00E9430010F5F1F4FEECFEB
:10018400EBCFFFCFBA93AA93E5B1EC73E5B9EBB12A
:10019400E774EBB9E881F981309711F45D9A29C0CD
:1001A400E130A0E0FA0711F45F9A23C0E230A0E046
:1001B400FA0711F4289A1DC0E330A0E0FA0711F4FD
:1001C400299A17C0E430A0E0FA0711F42E9A11C05E
:1001D400E530A0E0FA0711F45C9A0BC0E630A0E029
:1001E400FA0711F45B9A05C0E730A0E0FA0709F4B6
:1001F4002F9A22960895AA93E881E17011F042980B
:1002040001C0429AE881E27011F0439801C0439A18
:10021400E881E47011F0589801C0589AE881E870B8
:1002240011F0599801C0599AE881E07111F05A9877
:1002340001C05A9AE881E07211F02A9801C02A9A02
:10024400E881E07411F02B9801C02B9AE881E078E2
:1002540011F02C9801C02C9A21960895109639F02B
:10026400A89580ED97E00197F1F71197C9F70895E4
:00000001FF
