:0A0000000C9434000C9400000C94E2
:10000A0000000C9400000C9400000C9400000C9466
:10001A0000000C9400000C9400000C9400000C9456
:10002A0000000C9400000C9400000C9400000C9446
:10003A0000000C9400000C9400000C9400000C9436
:10004A0000000C9400000C9400000C9400000C9426
:10005A0000000C9400000C9400000C940000F8942A
:10006A00EE27EFBBF1E0F5BFE5BF8DE0A2E0BB27CD
:10007A00ED938A95E9F780E098E0A0E0B1E0ED938E
:10008A000197E9F7E0E0EEBBEFEFEDBFE8E0EEBF86
:10009A00C0E0D3E00C9451001CD02BD045D0FFCF48
:1000AA00FFCFAA932A9883E08A95F1F74424E8E0DF
:1000BA004E1630F4A98115D0A88113D04394F7CFF6
:1000CA0083E08A95F1F72A9A83E08A95F1F72296D6
:1000DA000895E4B1EC62E4B9E3E5ECBD2A9AA4E63A
:1000EA001FC0AA93E881EEBDEDB5E078E9F3219649
:1000FA000895ECE028D0A2E3B0E00E94AB00EFE064
:10010A0022D0E9E020D0EBE0EA93A7E0CADFEAE0F8
:10011A00EA93A1E0C6DFECE0EA93A1E0C2DFA2E342
:10012A00B0E00E94AB000895E1E03E2EE8E0E3155E
:10013A0048F03A92A0E0B5DFAAE0B0E00E94AB0036
:10014A003394F4CF0895EA93A0E0ABCF109639F038
:10015A00A89580ED97E00197F1F71197C9F70895EF
:00000001FF
