:060000000C9437010C9482
:1000060000000C9400000C9400000C9400000C946A
:1000160000000C9400000C9400000C9400000C945A
:1000260000000C9400000C9400000C9400000C944A
:1000360000000C9400000C9400000C9400000C943A
:1000460000000C9400000C9400000C9400000C942A
:1000560000000C9400000C9400000C9400000C941A
:100066000000003C66667E666666003E66663E6624
:10007600663E003C66060606663C003E66666666AA
:10008600663E007E06063E06067E007E06063E06A6
:100096000606003C66060676663C006666667E6672
:1000A6006666003C18181818183C00783030303650
:1000B600361C0066361E0E1E366600060606060648
:1000C600067E00C6EEFED6C6C6C600C6CEDEF6E67E
:1000D600C6C6003C66666666663C003E06063E662A
:1000E600663E003C666666763C60003E66663E1E80
:1000F6003666003C66063C60663C007E5A18181858
:100106001818006666666666667C006666666666DB
:100116003C1800C6C6C6D6FEEEC600C6C66C386C0F
:10012600C6C6006666663C181818007E6030180C55
:10013600067E00000000000000000000003C607C1D
:10014600667C000606063E66663E0000003C6606C5
:10015600663C006060607C66667C0000003C667EF3
:10016600063C00386C0C0C3E0C0C00007C66667C71
:10017600603C000606063E666666000030003018E3
:10018600183C003000303036361C00060666361E37
:1001960036660018181818181818000000C6EEFE63
:1001A600D6D60000003E7E6666660000003C6666A7
:1001B600663C00003E66663E060600003C36363C5F
:1001C600B0F00000003E666606060000007C023CB9
:1001D600403E000018187E18181800000066666673
:1001E600667C0000000066663C18000000C6D6D695
:1001F600D67C000000663C183C6600000066667C03
:10020600603C0000003C30180C3C0018181C181804
:10021600187E003C6660300C067E003C66603860E6
:10022600663C00303834327E3030007E063E6060F8
:10023600663C003C66063E66663C007E66303018CC
:100246001818003C66663C66663C003C66667C6048
:10025600663C003C66766E66663C457266616E007C
:100266000600000360020000F894EE27EFBBF1E001
:10027600F5BFE5BF8DE0A2E0BB27ED938A95E9F7D0
:1002860080E098E0A0E0B1E0ED930197E9F7E6E6BB
:10029600F2E085919591009761F0A591B591059051
:1002A6001590BF01F00105900D920197E1F7FB0152
:1002B600F0CFE0E0EEBBEFEFEDBFE8E0EEBFC0E071
:1002C600D3E00C9466013DD04CD090D0DAD0A0E0BB
:1002D600B3E03FD1A0E4B0E0EBD0A4E6B0E00E94EA
:1002E6009103F5CFFFCFAA932A9883E08A95F1F779
:1002F600A9812FD0A8812DD0AB812BD0AA8129D05E
:10030600AD8127D0AC8125D0AF8123D0AE8121D05D
:10031600A9851FD0A8851DD0AB851BD0AA8519D06D
:10032600AD8517D0AC8515D0AF8513D0AE8511D06D
:1003360083E08A95F1F72A9A83E08A95F1F7609629
:100346000895E4B1EC62E4B9E3E5ECBD2A9AA4E6CB
:1003560049C0AA93E881EEBDEDB5E078E9F32196B0
:1003660008958CD18BD18AD189D188D187D186D174
:10037600ECE089D1A2E3B0E00E94910387D186D157
:1003860085D184D183D182D181D1EFE07CD183D153
:1003960082D181D180D17FD17ED17DD1E9E073D167
:1003A6007FD17ED17DD17CD17BD17AD179D1EBE061
:1003B600EA93A7E098DF79D178D177D176D175D154
:1003C60074D173D1EAE0EA93AFE08DDF73D172D1D5
:1003D60071D170D16FD16ED16DD1ECE0EA93A1E00D
:1003E60082DFA2E3B0E00E94910308951A9311E020
:1003F600193058F464D163D11A93E0E0EA931A9362
:10040600A0E071DF64D11F5FF3CF19C01A9311E02A
:100416001930A8F460D1A0E063D1A8E061D1A0E1D1
:100426005FD1A8E15DD1A0E25BD1A8E259D1A0E3FA
:1004360057D1A8E306D0AE2F56DF1F5FE9CF19913B
:100446000895AA931A930A9300E010E01830B8F4BE
:10045600EB8149D10F01AA81BB27E12FF0E0EA0F1A
:10046600FB1FD001AE0FBF1FAC91A13031F4E7E006
:10047600E11BA1E00E949B030E2B1F5FE7CFE02F3D
:1004860064C01A930A9310E0183070F400E0003448
:1004960048F4E12F28D1DF01EE27A00FBE1FEC9311
:1004A6000F5FF5CF1F5FF0CFB1DF09911991089566
:1004B600BA93AA932897E0E0E883E983EA83EB837B
:1004C600EC83ED83EE83EF830E94B70300E010E038
:1004D600EC85FD850E171F0734F4DE0114960BD14B
:1004E6000F5F1F4FF5CF0E94BE032E960895BA9355
:1004F600AA931A930A9310E0183038F500E00F33E8
:10050600A0F4E12FF0D0BF01DF01E02FF0E0EA0F09
:10051600FB1F0F01DB01E02FF0E03196AE0FBF1F8E
:10052600EC91D001EC930F5FEACFAA81BB81EE2755
:10053600A10FBE1FAC91A13019F4E0D0A1E002C01A
:10054600DDD0A0E0A0831F5FD7CF19810881249654
:100556000895BA93AA932A970E94B50300E010E083
:10056600F801A889B989AE0FBF1FEC91E03009F4F4
:1005760081C02197F801A989BA89AE0FBF1FEC91F6
:10058600E883A881A13410F0AB3508F008C0E0E09C
:10059600E88BE881F0E0E154F0409F0129C0A88192
:1005A600A13610F0AB3708F009C0E0E0E88BE8812F
:1005B600F0E0E156F0407B969F011AC0A881A03278
:1005C60099F0A03310F0AA3308F00EC0E1E0E88BF2
:1005D600A881B0E0D09719F4E9E0F0E003C0E88123
:1005E600F0E0F1979F0104C0E0E0E88B2AE130E0FB
:1005F60050E0583080F540E0483040F5E889E0307A
:1006060031F4F9010E94AE03E859FF4F05C0F90124
:100616000E94AE03E05FFD4FDF01E42FF0E0EA0F3A
:10062600FB1F04900F82E52FA1E0B0E00E94A30318
:10063600AF81B0E0EA23FB23309719F068D0E1E000
:1006460002C065D0E0E0EC934F5FD6CFDE0118968E
:1006560052D05F5FCECF40E0483028F458D0E0E07B
:10066600EC934F5FF9CFDE01189645D021960F5FC8
:100676001F4F76CF0E94BC0362960895ECE0EA9382
:10068600E0E0EA930895EA93A0E02DCEEFE0EA9346
:10069600E0E0EA930895E9E0EA93E0E0EA9308955A
:1006A600EBE0EA93E7E0EA930895EAE0EA93EFE005
:1006B600EA930895ECE0EA93E1E0EA9308951A9349
:1006C600E0E0EA931A93EA931A93EA930895AAE06C
:1006D600B0E00C9491031A93E12FE150EA93089548
:1006E600B0DEEA93F8CFF0E00E94B0030E94AC03BC
:1006F600EA5FFC4F0895FBDE89DEE9CFE12FF0E0EB
:100706000E94B0030E94AC03EB5BFC4F0895E42FFC
:10071600F0E0DE011896AE0FBF1F0895109639F06F
:10072600A89580ED97E00197F1F71197C9F708951D
:10073600EE230E2EEA2F19F0EE0F0A94E9F708952C
:10074600EE230E2EFD0121F0EE0FFF1F0A94E1F7B6
:100756000895EE0FFF1FEE0FFF1FEE0FFF1FEE0FA8
:10076600FF1F08955A934A933A932A931A930A932A
:1007760008955D814C813B812A8119810881089504
:00000001FF
