:0A0000000C9408010C9400000C940D
:10000A0000000C9400000C9400000C9400000C9466
:10001A0000000C9400000C9400000C9400000C9456
:10002A0000000C9400000C9400000C9400000C9446
:10003A0000000C9400000C9400000C9400000C9436
:10004A0000000C9400000C9400000C9400000C9426
:10005A0000000C9400000C9400000C940000003C7A
:10006A0066667E666666003E66663E66663E003C7C
:10007A0066060606663C003E66666666663E007E64
:10008A0006063E06067E007E06063E060606003C7C
:10009A0066060676663C006666667E666666003CAE
:1000AA0018181818183C007830303036361C00669C
:1000BA00361E0E1E3666000606060606067E00C6B2
:1000CA00EEFED6C6C6C600C6CEDEF6E6C6C6003CFC
:1000DA0066666666663C003E06063E66663E003C0E
:1000EA00666666763C60003E66663E1E3666003C84
:1000FA0066063C60663C007E5A1818181818006696
:10010A0066666666667C0066666666663C1800C653
:10011A00C6C6D6FEEEC600C6C66C386CC6C6006633
:10012A0066663C181818007E6030180C067E0000BF
:10013A000000000000000000003C607C667C0006B5
:10014A0006063E66663E0000003C6606663C0060A7
:10015A0060607C66667C0000003C667E063C003877
:10016A006C0C0C3E0C0C00007C66667C603C000645
:10017A0006063E666666000030003018183C0030FD
:10018A0000303036361C00060666361E3666001803
:10019A00181818181818000000C6EEFED6D6000067
:1001AA00003E7E6666660000003C6666663C0000AD
:1001BA003E66663E060600003C36363CB0F000005D
:1001CA00003E666606060000007C023C403E0000D7
:1001DA0018187E181818000000666666667C00000B
:1001EA00000066663C18000000C6D6D6D67C000021
:1001FA0000663C183C6600000066667C603C0000B5
:10020A00003C30180C3CF894EE27EFBBF1E0F5BF48
:10021A00E5BF8DE0A2E0BB27ED938A95E9F780E080
:10022A0098E0A0E0B1E0ED930197E9F7E0E0EEBBDA
:10023A00EFEFEDBFE8E0EEBFC0E0D3E00C9425019C
:10024A005BD06AD0AED018D1E4E0F0E0FA93EA933A
:10025A00A0E0B0E0DBD0E1E1F0E0FA93EA93A1E0BC
:10026A00B0E0D4D0E5E0F0E0FA93EA93A2E0B0E09F
:10027A00CDD0E0E0F0E0FA93EA93A3E0B0E0C6D094
:10028A00EDE0F0E0FA93EA93A4E0B0E0BFD09CD0AE
:10029A00A8EEB3E00E949102D7CFFFCFAA932A9883
:1002AA0083E08A95F1F7A9812FD0A8812DD0AB815F
:1002BA002BD0AA8129D0AD8127D0AC8125D0AF819E
:1002CA0023D0AE8121D0A9851FD0A8851DD0AB85AA
:1002DA001BD0AA8519D0AD8517D0AC8515D0AF85AE
:1002EA0013D0AE8511D083E08A95F1F72A9A83E07C
:1002FA008A95F1F760960895E4B1EC62E4B9E3E512
:10030A00ECBD2A9AA4E649C0AA93E881EEBDEDB5F0
:10031A00E078E9F321960895C5D0C4D0C3D0C2D0FD
:10032A00C1D0C0D0BFD0ECE0C2D0A2E3B0E00E94FE
:10033A009102C0D0BFD0BED0BDD0BCD0BBD0BAD045
:10034A00EFE0B5D0BCD0BBD0BAD0B9D0B8D0B7D016
:10035A00B6D0E9E0ACD0B8D0B7D0B6D0B5D0B4D02A
:10036A00B3D0B2D0EBE0EA93A7E098DFB2D0B1D035
:10037A00B0D0AFD0AED0ADD0ACD0EAE0EA93AFE027
:10038A008DDFACD0ABD0AAD0A9D0A8D0A7D0A6D0A8
:10039A00ECE0EA93A1E082DFA2E3B0E00E949102DE
:1003AA0008951A9311E0193070F49DD09CD01A93D5
:1003BA00E0E0EA931A93A0E071DFAAE0B0E00E94BD
:1003CA0091021F5FF0CF20C01A9311E01930E0F4B8
:1003DA0092D0E050FD4F96D0EF5FFC4F93D0EE5F86
:1003EA00FC4F90D0ED5FFC4F8DD0EC5FFC4F8AD074
:1003FA00EB5FFC4F87D0EA5FFC4F84D0E95FFC4F8C
:10040A00A0814CDF1F5FE2CF19910895BA93AA9396
:10041A000E94B30210E0183058F5EE81FF810E9465
:10042A00AC02E859FF4FDF01E12FF0E0EA0FFB1FB2
:10043A00349120E000E0083098F4E02FA1E0B0E029
:10044A000E94A302A32FB0E0EA23FB23309731F0E6
:10045A00E7E0E01BA1E00E949B022E2B0F5FEBCF8F
:10046A0054D0AC81BD81EA0FFB1F20831F5FD3CF1D
:10047A000E94B802289608951A930A9310E0183039
:10048A0068F400E0083040F440D0DF01EE27A00F06
:10049A00BE1FEC930F5FF6CF1F5FF1CF95DF099177
:1004AA0019910895ECE0EA93E0E0EA930895EA935B
:1004BA00A0E0F4CEEFE0EA93E0E0EA930895E9E001
:1004CA00EA93E0E0EA930895EBE0EA93E7E0EA933F
:1004DA000895EAE0EA93EFE0EA930895ECE0EA93FC
:1004EA00E1E0EA9308951A93E0E0EA931A93EA9313
:1004FA001A93EA9308951A93E12FF0E031970E9434
:10050A00AC020895E081EA93F6CFE12FF0E00E9471
:10051A00AC02E050FD4F0895109639F0A89580ED91
:10052A0097E00197F1F71197C9F70895EE230E2E78
:10053A00EA2F19F0EE0F0A94E9F70895EE230E2E2A
:10054A00FD0121F0EE0FFF1F0A94E1F70895EE0F67
:10055A00FF1FEE0FFF1FEE0FFF1F08953A932A9316
:10056A001A930A9308953B812A8119810881089573
:00000001FF
